:100000000C9495000C94A7000C94A7000C94A700E6
:100010000C94A7000C94A7000C94A7000C94A700C4
:100020000C94A7000C94A7000C94A7000C94A700B4
:100030000C94A7000C94A7000C94A7000C94A700A4
:100040000C944E010C94A7000C94A7000C94A700EC
:100050000C94A7000C94A7000C94A7000C94A70084
:100060000C94A7000C94A7000C94A7000C94A70074
:100070000C94A7000C94A7000C94A7000C94A70064
:100080000C94A7000C94A7000C94A7000C94A70054
:100090000C94A7000C94A7000C94A7000C94A70044
:1000A0000C94A7000C94A7000C94A7000C94A70034
:1000B0000C94A700000000002300260029002C005B
:1000C00000000000240027002A002D00000000008E
:1000D000250028002B002E0004040404040404045A
:1000E00002020202020203030303030302020305E6
:1000F00005050501020408102040800102040810D3
:1001000020010204081020408040010204080A0D6A
:100110000E090003020000040508000000000000B2
:100120000000000000000000000011241FBECFEFFF
:10013000D8E0DEBFCDBF21E0A0E0B1E001C01D925C
:10014000A331B207E1F70E9498010C9482020C944B
:10015000000082508D3008F03EC0E82FF0E0ED54F2
:10016000FF4F0C947C02E800EC00C000C600EB00DE
:10017000EB00CA00D000D400DA00EB00DE00E4009F
:10018000809180008F778093800008958091800017
:100190008F7DF9CF8091B0008F778093B000089564
:1001A0008091B0008F7DF9CF809190008F77809300
:1001B00090000895809190008F7DF9CF8091A000EC
:1001C0008F778093A00008958091A0008F7DF9CF54
:1001D00084B58F7784BD089584B58F7DFBCF1F9341
:1001E000CF93DF93282F30E0F901E25FFE4F849137
:1001F000F901ED50FF4FD491F901E852FF4FC4913E
:10020000CC23A9F0162F81110E94A900EC2FF0E059
:10021000EE0FFF1FE453FF4FA591B4918FB7F894F1
:10022000EC91111108C0D095DE23DC938FBFDF91D4
:10023000CF911F910895DE2BF8CFCF93DF9390E0FD
:10024000FC01ED50FF4F249188529F4FFC01849197
:100250008823D1F090E0880F991FFC01E054FF4FF4
:10026000A591B491FC01E453FF4FC591D491623044
:1002700071F49FB7F8943C91822F809583238C93DF
:10028000E8812E2B28839FBFDF91CF9108958FB7F0
:10029000F894EC912E2B2C938FBFF6CF1F920F92D8
:1002A0000FB60F9211242F933F938F939F93AF9389
:1002B000BF9380910F0190911001A0911101B09115
:1002C000120130910E0123E0230F2D3768F126E84B
:1002D000230F0296A11DB11D20930E0180930F01E3
:1002E00090931001A0931101B093120180910A0123
:1002F00090910B01A0910C01B0910D010196A11DEF
:10030000B11D80930A0190930B01A0930C01B0934F
:100310000D01BF91AF919F918F913F912F910F90C0
:100320000FBE0F901F9018950196A11DB11DD4CF3F
:10033000789484B5836084BD85B5836085BD8091E4
:100340006E00816080936E0082E0809381008091D6
:100350008100816080938100809180008160809322
:1003600080008091B10084608093B1008091B000E2
:1003700081608093B00080919100836080939100B0
:10038000809190008160809390008091A1008360B3
:100390008093A1008091A00081608093A00087E8F5
:1003A00080937A001092C10061E08CE00E941D01F0
:1003B00061E08BE00E941D0161E08AE00E941D0166
:1003C00061E089E00E941D0162E083E00E941D015E
:1003D000C1E1D1E006EF10E09BEDE92E90E0F92EAF
:1003E000BB24B39420E0C22E20E0D22EFE018491E3
:1003F000F801A490F701949091103BC02FB7F894A6
:1004000080910F0190911001A0911101B091120102
:100410002FBF409106015091070160910801709132
:100420000901841B950BA60BB70B853F9140A105D5
:10043000B10578F5609103016B258CE00E94EF0017
:10044000609102016B258BE00E94EF006091010139
:100450006B258AE00E94EF00609100016B2589E026
:100460000E94EF00C114D10409F4C0CF0E94000023
:10047000BDCF81110E94A900E92DF0E0EE0FFF1F12
:10048000EC54FF4FA591B4918C91A82209F4B6CFFA
:10049000D1CF8091040190910501FC01E050FF4F04
:1004A00020812B252083019685309105C4F49093FB
:1004B0000501809304012FB7F89480910F0190916A
:1004C0001001A0911101B09112012FBF809306017C
:1004D00090930701A0930801B0930901ABCF10924C
:1004E0000501109204011092000110920101109276
:1004F000020110920301DFCFEE0FFF1F0590F49170
:08050000E02D0994F894FFCFEF
:00000001FF
